{
  "contractName": "RPS",
  "abi": [
    {
      "inputs": [],
      "stateMutability": "payable",
      "type": "constructor",
      "payable": true
    },
    {
      "anonymous": false,
      "inputs": [
        {
          "indexed": false,
          "internalType": "address",
          "name": "originator",
          "type": "address"
        },
        {
          "indexed": false,
          "internalType": "uint8",
          "name": "originator_hand",
          "type": "uint8"
        },
        {
          "indexed": false,
          "internalType": "address",
          "name": "taker",
          "type": "address"
        },
        {
          "indexed": false,
          "internalType": "uint8",
          "name": "taker_hand",
          "type": "uint8"
        }
      ],
      "name": "tie_result",
      "type": "event"
    },
    {
      "anonymous": false,
      "inputs": [
        {
          "indexed": false,
          "internalType": "address",
          "name": "winner",
          "type": "address"
        },
        {
          "indexed": false,
          "internalType": "uint8",
          "name": "winner_hand",
          "type": "uint8"
        },
        {
          "indexed": false,
          "internalType": "address",
          "name": "looser",
          "type": "address"
        },
        {
          "indexed": false,
          "internalType": "uint8",
          "name": "looser_hand",
          "type": "uint8"
        }
      ],
      "name": "win_result",
      "type": "event"
    },
    {
      "inputs": [
        {
          "internalType": "uint256",
          "name": "_determine",
          "type": "uint256"
        }
      ],
      "name": "createRoom",
      "outputs": [
        {
          "internalType": "uint256",
          "name": "roomNum",
          "type": "uint256"
        }
      ],
      "stateMutability": "payable",
      "type": "function",
      "payable": true
    },
    {
      "inputs": [
        {
          "internalType": "uint256",
          "name": "roomNum",
          "type": "uint256"
        },
        {
          "internalType": "uint256",
          "name": "_determine",
          "type": "uint256"
        }
      ],
      "name": "joinRoom",
      "outputs": [],
      "stateMutability": "payable",
      "type": "function",
      "payable": true
    },
    {
      "inputs": [
        {
          "internalType": "uint256",
          "name": "roomNum",
          "type": "uint256"
        }
      ],
      "name": "checkTotalPay",
      "outputs": [
        {
          "internalType": "uint256",
          "name": "roomNumPay",
          "type": "uint256"
        }
      ],
      "stateMutability": "view",
      "type": "function",
      "constant": true
    },
    {
      "inputs": [
        {
          "internalType": "uint256",
          "name": "roomNum",
          "type": "uint256"
        }
      ],
      "name": "payout",
      "outputs": [],
      "stateMutability": "payable",
      "type": "function",
      "payable": true
    },
    {
      "inputs": [],
      "name": "maxBetRoom",
      "outputs": [
        {
          "internalType": "uint256",
          "name": "roomNum",
          "type": "uint256"
        }
      ],
      "stateMutability": "view",
      "type": "function",
      "constant": true
    },
    {
      "inputs": [
        {
          "internalType": "uint256",
          "name": "_numIdx",
          "type": "uint256"
        }
      ],
      "name": "numPersonInRoom",
      "outputs": [
        {
          "internalType": "uint256",
          "name": "",
          "type": "uint256"
        }
      ],
      "stateMutability": "view",
      "type": "function",
      "constant": true
    }
  ],
  "bytecode": "0x60806040526000600155611609806100186000396000f3fe6080604052600436106100555760003560e01c80630a1c87a91461005a578063393af76014610076578063ad5d5287146100b3578063bbba8257146100de578063c655d3e51461010e578063e11523431461014b575b600080fd5b610074600480360381019061006f9190611187565b610167565b005b34801561008257600080fd5b5061009d600480360381019061009891906111c7565b61028c565b6040516100aa9190611203565b60405180910390f35b3480156100bf57600080fd5b506100c86102ab565b6040516100d59190611203565b60405180910390f35b6100f860048036038101906100f391906111c7565b6103a8565b6040516101059190611203565b60405180910390f35b34801561011a57600080fd5b50610135600480360381019061013091906111c7565b61060a565b6040516101429190611203565b60405180910390f35b610165600480360381019061016091906111c7565b610611565b005b60405180608001604052803373ffffffffffffffffffffffffffffffffffffffff1681526020013481526020018281526020016003808111156101ad576101ac61121e565b5b81525060008084815260200190815260200160002060040160008201518160000160006101000a81548173ffffffffffffffffffffffffffffffffffffffff021916908373ffffffffffffffffffffffffffffffffffffffff160217905550602082015181600101556040820151816002015560608201518160030160006101000a81548160ff0219169083600381111561024b5761024a61121e565b5b0217905550905050346000808481526020019081526020016000206008016000828254610278919061127c565b9250508190555061028882610c13565b5050565b6000806000838152602001908152602001600020600801549050919050565b600080600154116102f1576040517f08c379a00000000000000000000000000000000000000000000000000000000081526004016102e89061130d565b60405180910390fd5b60008060005b60015481101561039f57600060038111156103155761031461121e565b5b60008083815260200190815260200160002060090160009054906101000a900460ff16600381111561034a5761034961121e565b5b14801561036b57508260008083815260200190815260200160002060080154115b1561038c576000808281526020019081526020016000206008015492508091505b80806103979061132d565b9150506102f7565b50809250505090565b6000604051806080016040528060405180608001604052803373ffffffffffffffffffffffffffffffffffffffff1681526020013481526020018581526020016003808111156103fb576103fa61121e565b5b815250815260200160405180608001604052803373ffffffffffffffffffffffffffffffffffffffff1681526020016000815260200185815260200160038081111561044a5761044961121e565b5b81525081526020013481526020016000600381111561046c5761046b61121e565b5b815250600080600154815260200190815260200160002060008201518160000160008201518160000160006101000a81548173ffffffffffffffffffffffffffffffffffffffff021916908373ffffffffffffffffffffffffffffffffffffffff160217905550602082015181600101556040820151816002015560608201518160030160006101000a81548160ff021916908360038111156105125761051161121e565b5b0217905550505060208201518160040160008201518160000160006101000a81548173ffffffffffffffffffffffffffffffffffffffff021916908373ffffffffffffffffffffffffffffffffffffffff160217905550602082015181600101556040820151816002015560608201518160030160006101000a81548160ff021916908360038111156105a8576105a761121e565b5b021790555050506040820151816008015560608201518160090160006101000a81548160ff021916908360038111156105e4576105e361121e565b5b02179055509050506001549050600180546105ff919061127c565b600181905550919050565b6000919050565b803360008083815260200190815260200160002060000160000160009054906101000a900473ffffffffffffffffffffffffffffffffffffffff1673ffffffffffffffffffffffffffffffffffffffff168173ffffffffffffffffffffffffffffffffffffffff1614806106e8575060008083815260200190815260200160002060040160000160009054906101000a900473ffffffffffffffffffffffffffffffffffffffff1673ffffffffffffffffffffffffffffffffffffffff168173ffffffffffffffffffffffffffffffffffffffff16145b6106f157600080fd5b600260038111156107055761070461121e565b5b60008085815260200190815260200160002060000160030160009054906101000a900460ff16600381111561073d5761073c61121e565b5b1480156107935750600260038111156107595761075861121e565b5b60008085815260200190815260200160002060040160030160009054906101000a900460ff1660038111156107915761079061121e565b5b145b156108cb5760008084815260200190815260200160002060000160000160009054906101000a900473ffffffffffffffffffffffffffffffffffffffff1673ffffffffffffffffffffffffffffffffffffffff166108fc600080868152602001908152602001600020600001600101549081150290604051600060405180830381858888f1935050505015801561082e573d6000803e3d6000fd5b5060008084815260200190815260200160002060040160000160009054906101000a900473ffffffffffffffffffffffffffffffffffffffff1673ffffffffffffffffffffffffffffffffffffffff166108fc600080868152602001908152602001600020600401600101549081150290604051600060405180830381858888f193505050501580156108c5573d6000803e3d6000fd5b50610bd0565b600060038111156108df576108de61121e565b5b60008085815260200190815260200160002060000160030160009054906101000a900460ff1660038111156109175761091661121e565b5b036109b55760008084815260200190815260200160002060000160000160009054906101000a900473ffffffffffffffffffffffffffffffffffffffff1673ffffffffffffffffffffffffffffffffffffffff166108fc600080868152602001908152602001600020600801549081150290604051600060405180830381858888f193505050501580156109af573d6000803e3d6000fd5b50610bcf565b600060038111156109c9576109c861121e565b5b60008085815260200190815260200160002060040160030160009054906101000a900460ff166003811115610a0157610a0061121e565b5b03610a9f5760008084815260200190815260200160002060040160000160009054906101000a900473ffffffffffffffffffffffffffffffffffffffff1673ffffffffffffffffffffffffffffffffffffffff166108fc600080868152602001908152602001600020600801549081150290604051600060405180830381858888f19350505050158015610a99573d6000803e3d6000fd5b50610bce565b60008084815260200190815260200160002060000160000160009054906101000a900473ffffffffffffffffffffffffffffffffffffffff1673ffffffffffffffffffffffffffffffffffffffff166108fc600080868152602001908152602001600020600001600101549081150290604051600060405180830381858888f19350505050158015610b35573d6000803e3d6000fd5b5060008084815260200190815260200160002060040160000160009054906101000a900473ffffffffffffffffffffffffffffffffffffffff1673ffffffffffffffffffffffffffffffffffffffff166108fc600080868152602001908152602001600020600401600101549081150290604051600060405180830381858888f19350505050158015610bcc573d6000803e3d6000fd5b505b5b5b600260008085815260200190815260200160002060090160006101000a81548160ff02191690836003811115610c0957610c0861121e565b5b0217905550505050565b6000600360008084815260200190815260200160002060000160020154424433604051602001610c4593929190611410565b6040516020818303038152906040528051906020012060001c610c68919061127c565b610c72919061147c565b90506000600360008085815260200190815260200160002060040160020154424433604051602001610ca693929190611410565b6040516020818303038152906040528051906020012060001c610cc9919061127c565b610cd3919061147c565b9050600160008085815260200190815260200160002060090160006101000a81548160ff02191690836003811115610d0e57610d0d61121e565b5b02179055508160ff168160ff1603610e5457600260008085815260200190815260200160002060000160030160006101000a81548160ff02191690836003811115610d5c57610d5b61121e565b5b0217905550600260008085815260200190815260200160002060040160030160006101000a81548160ff02191690836003811115610d9d57610d9c61121e565b5b02179055507fac2a62c7a5b1b824c869bdef5211e255999f04c385590bd424cd7c96ec67f81760008085815260200190815260200160002060000160000160009054906101000a900473ffffffffffffffffffffffffffffffffffffffff168360008087815260200190815260200160002060040160000160009054906101000a900473ffffffffffffffffffffffffffffffffffffffff1684604051610e479493929190611528565b60405180910390a1611147565b8160ff166003600183610e67919061156d565b610e7191906115a2565b60ff1603610fad57600080600085815260200190815260200160002060000160030160006101000a81548160ff02191690836003811115610eb557610eb461121e565b5b0217905550600160008085815260200190815260200160002060040160030160006101000a81548160ff02191690836003811115610ef657610ef561121e565b5b02179055507f516302ef0e7812d0ec791e494f148fe129d86666f042509ee52b87815869884460008085815260200190815260200160002060000160000160009054906101000a900473ffffffffffffffffffffffffffffffffffffffff168360008087815260200190815260200160002060040160000160009054906101000a900473ffffffffffffffffffffffffffffffffffffffff1684604051610fa09493929190611528565b60405180910390a1611146565b8060ff166003600184610fc0919061156d565b610fca91906115a2565b60ff160361110657600080600085815260200190815260200160002060040160030160006101000a81548160ff0219169083600381111561100e5761100d61121e565b5b0217905550600160008085815260200190815260200160002060000160030160006101000a81548160ff0219169083600381111561104f5761104e61121e565b5b02179055507f516302ef0e7812d0ec791e494f148fe129d86666f042509ee52b87815869884460008085815260200190815260200160002060040160000160009054906101000a900473ffffffffffffffffffffffffffffffffffffffff168260008087815260200190815260200160002060000160000160009054906101000a900473ffffffffffffffffffffffffffffffffffffffff16856040516110f99493929190611528565b60405180910390a1611145565b600360008085815260200190815260200160002060090160006101000a81548160ff0219169083600381111561113f5761113e61121e565b5b02179055505b5b5b505050565b600080fd5b6000819050919050565b61116481611151565b811461116f57600080fd5b50565b6000813590506111818161115b565b92915050565b6000806040838503121561119e5761119d61114c565b5b60006111ac85828601611172565b92505060206111bd85828601611172565b9150509250929050565b6000602082840312156111dd576111dc61114c565b5b60006111eb84828501611172565b91505092915050565b6111fd81611151565b82525050565b600060208201905061121860008301846111f4565b92915050565b7f4e487b7100000000000000000000000000000000000000000000000000000000600052602160045260246000fd5b7f4e487b7100000000000000000000000000000000000000000000000000000000600052601160045260246000fd5b600061128782611151565b915061129283611151565b92508282019050808211156112aa576112a961124d565b5b92915050565b600082825260208201905092915050565b7f4e4f5420415641494c41424c452047414d450000000000000000000000000000600082015250565b60006112f76012836112b0565b9150611302826112c1565b602082019050919050565b60006020820190508181036000830152611326816112ea565b9050919050565b600061133882611151565b91507fffffffffffffffffffffffffffffffffffffffffffffffffffffffffffffffff820361136a5761136961124d565b5b600182019050919050565b6000819050919050565b61139061138b82611151565b611375565b82525050565b600073ffffffffffffffffffffffffffffffffffffffff82169050919050565b60006113c182611396565b9050919050565b60008160601b9050919050565b60006113e0826113c8565b9050919050565b60006113f2826113d5565b9050919050565b61140a611405826113b6565b6113e7565b82525050565b600061141c828661137f565b60208201915061142c828561137f565b60208201915061143c82846113f9565b601482019150819050949350505050565b7f4e487b7100000000000000000000000000000000000000000000000000000000600052601260045260246000fd5b600061148782611151565b915061149283611151565b9250826114a2576114a161144d565b5b828206905092915050565b6000819050919050565b60006114d26114cd6114c884611396565b6114ad565b611396565b9050919050565b60006114e4826114b7565b9050919050565b60006114f6826114d9565b9050919050565b611506816114eb565b82525050565b600060ff82169050919050565b6115228161150c565b82525050565b600060808201905061153d60008301876114fd565b61154a6020830186611519565b61155760408301856114fd565b6115646060830184611519565b95945050505050565b60006115788261150c565b91506115838361150c565b9250828201905060ff81111561159c5761159b61124d565b5b92915050565b60006115ad8261150c565b91506115b88361150c565b9250826115c8576115c761144d565b5b82820690509291505056fea26469706673582212200cfdba1ab95d5d6d8d8e19afcbc02dfaeaeb70733f2e1992943a349979e8e4a064736f6c63430008110033",
  "immutableReferences": {},
  "source": "//SPDX-License-Identifier: MIT\npragma solidity ^0.8.7;\n\ncontract RPS {\n    constructor ()payable {}\n\n    \n\n    enum Hand {\n        rock, paper, scissors\n    }\n\n    enum PlayerStatus {\n        STATUS_WIN, STATUS_LOSE, STATUS_TIE, STATUS_PENDING\n    }\n\n    enum GameStatus {\n        STATUS_NOT_STARTED, STATUS_STARTED, STATUS_COMPILE, STATUS_ERROR\n    }\n\n    struct Player{\n        address payable addr;\n        uint256 playerBetAmount;\n        uint256 determine;\n        PlayerStatus playerStatus;\n    }\n\n    struct Game {\n        Player originator;\n        Player taker;\n        uint256 betAmount;\n        GameStatus gameStatus;\n    }\n\n    mapping(uint => Game) rooms;\n    uint roomLen = 0;\n\n    modifier isValidHand (Hand _hand){\n        require((_hand == Hand.rock || _hand == Hand.paper || _hand == Hand.scissors));\n        _;\n    }\n\n    event win_result(address winner, uint8 winner_hand, address looser, uint8 looser_hand);\n    event tie_result(address originator, uint8 originator_hand, address taker, uint8 taker_hand);\n\n    function createRoom (uint _determine) public payable returns (uint roomNum){\n        rooms[roomLen] = Game({\n            betAmount: msg.value,\n            gameStatus: GameStatus.STATUS_NOT_STARTED,\n            originator: Player({\n                determine: _determine,\n                addr: payable(msg.sender),\n                playerStatus: PlayerStatus.STATUS_PENDING,\n                playerBetAmount: msg.value\n            }),\n            taker: Player({\n                determine: _determine,\n                addr: payable(msg.sender),\n                playerStatus: PlayerStatus.STATUS_PENDING,\n                playerBetAmount: 0\n            })\n        });\n\n        roomNum = roomLen;\n        roomLen = roomLen+1;\n    }\n\n    function joinRoom(uint roomNum, uint256 _determine) public payable{\n        rooms[roomNum].taker = Player({\n            determine : _determine,\n            addr: payable(msg.sender),\n            playerStatus: PlayerStatus.STATUS_PENDING,\n            playerBetAmount: msg.value\n        });\n\n        rooms[roomNum].betAmount += msg.value;\n        compareHands(roomNum);\n    }\n\n    function compareHands(uint roomNum) private {\n        uint8 originator = uint8(\n            (uint256(keccak256(abi.encodePacked(block.timestamp,block.difficulty,msg.sender))) + rooms[roomNum].originator.determine)  % 3\n        );\n        uint8 taker = uint8(\n            (uint256(keccak256(abi.encodePacked(block.timestamp,block.difficulty,msg.sender))) + rooms[roomNum].taker.determine)  % 3\n        );\n\n        rooms[roomNum].gameStatus = GameStatus.STATUS_STARTED;\n\n        if(taker == originator){\n            rooms[roomNum].originator.playerStatus = PlayerStatus.STATUS_TIE;\n            rooms[roomNum].taker.playerStatus = PlayerStatus.STATUS_TIE;\n            emit tie_result(rooms[roomNum].originator.addr, originator, rooms[roomNum].taker.addr, taker);\n        } else if((taker + 1)% 3 == originator){\n            rooms[roomNum].originator.playerStatus = PlayerStatus.STATUS_WIN;\n            rooms[roomNum].taker.playerStatus = PlayerStatus.STATUS_LOSE;\n            emit win_result(rooms[roomNum].originator.addr, originator, rooms[roomNum].taker.addr, taker);\n        } else if((originator + 1) % 3  == taker){\n            rooms[roomNum].taker.playerStatus = PlayerStatus.STATUS_WIN;\n            rooms[roomNum].originator.playerStatus = PlayerStatus.STATUS_LOSE;\n            emit win_result(rooms[roomNum].taker.addr, taker, rooms[roomNum].originator.addr, originator);\n        } else {\n            rooms[roomNum].gameStatus = GameStatus.STATUS_ERROR;\n        }\n    }\n\n    function checkTotalPay (uint roomNum) public view returns(uint roomNumPay){\n        return rooms[roomNum].betAmount;\n    }\n\n    modifier isPlayer(uint roomNum, address sender){\n        require(sender == rooms[roomNum].originator.addr || sender == rooms[roomNum].taker.addr);\n        _;\n    }\n\n    function payout (uint roomNum) public payable isPlayer(roomNum, msg.sender) {\n        if(rooms[roomNum].originator.playerStatus == PlayerStatus.STATUS_TIE && rooms[roomNum].taker.playerStatus == PlayerStatus.STATUS_TIE){\n            rooms[roomNum].originator.addr.transfer(rooms[roomNum].originator.playerBetAmount);\n            rooms[roomNum].taker.addr.transfer(rooms[roomNum].taker.playerBetAmount);\n        } else {\n            if(rooms[roomNum].originator.playerStatus == PlayerStatus.STATUS_WIN){\n                rooms[roomNum].originator.addr.transfer(rooms[roomNum].betAmount);\n            } else if(rooms[roomNum].taker.playerStatus == PlayerStatus.STATUS_WIN){\n                rooms[roomNum].taker.addr.transfer(rooms[roomNum].betAmount);\n            } else{\n                rooms[roomNum].originator.addr.transfer(rooms[roomNum].originator.playerBetAmount);\n                rooms[roomNum].taker.addr.transfer(rooms[roomNum].taker.playerBetAmount);\n            }\n        }\n        rooms[roomNum].gameStatus = GameStatus.STATUS_COMPILE;\n    }\n\n    function maxBetRoom () public view returns(uint roomNum){\n        require(roomLen > 0, \"NOT AVAILABLE GAME\");\n        uint maxBet = 0;\n        uint maxIdx = 0;\n\n        for (uint i = 0; i < roomLen; i++){\n            if (rooms[i].gameStatus == GameStatus.STATUS_NOT_STARTED && rooms[i].betAmount > maxBet){\n                maxBet = rooms[i].betAmount;\n                maxIdx = i;\n            }\n        }\n\n        return maxIdx;\n    }\n\n    function numPersonInRoom(uint256 _numIdx) public view returns(uint256){\n        //   \n    }\n}",
  "sourcePath": "/Users/duh8n/Workspace/Study_solidity/RPS/contracts/RPS.sol",
  "compiler": {
    "name": "solc",
    "version": "0.8.17+commit.8df45f5f.Emscripten.clang"
  },
  "schemaVersion": "3.4.10",
  "updatedAt": "2022-11-30T08:25:31.108Z",
  "networkType": "ethereum",
  "devdoc": {
    "kind": "dev",
    "methods": {},
    "version": 1
  },
  "userdoc": {
    "kind": "user",
    "methods": {},
    "version": 1
  }
}